{
  "contractName": "Freelancing",
  "abi": [
    {
      "inputs": [
        {
          "internalType": "uint256",
          "name": "_unlockTime",
          "type": "uint256"
        }
      ],
      "stateMutability": "payable",
      "type": "constructor",
      "payable": true
    },
    {
      "anonymous": false,
      "inputs": [
        {
          "indexed": false,
          "internalType": "uint256",
          "name": "_amount",
          "type": "uint256"
        },
        {
          "indexed": false,
          "internalType": "uint256",
          "name": "when",
          "type": "uint256"
        }
      ],
      "name": "Withdrawal",
      "type": "event"
    },
    {
      "inputs": [],
      "name": "amount",
      "outputs": [
        {
          "internalType": "uint256",
          "name": "",
          "type": "uint256"
        }
      ],
      "stateMutability": "view",
      "type": "function",
      "constant": true
    },
    {
      "inputs": [],
      "name": "freelancer",
      "outputs": [
        {
          "internalType": "address payable",
          "name": "",
          "type": "address"
        }
      ],
      "stateMutability": "view",
      "type": "function",
      "constant": true
    },
    {
      "inputs": [],
      "name": "owner",
      "outputs": [
        {
          "internalType": "address payable",
          "name": "",
          "type": "address"
        }
      ],
      "stateMutability": "view",
      "type": "function",
      "constant": true
    },
    {
      "inputs": [],
      "name": "unlockTime",
      "outputs": [
        {
          "internalType": "uint256",
          "name": "",
          "type": "uint256"
        }
      ],
      "stateMutability": "view",
      "type": "function",
      "constant": true
    },
    {
      "inputs": [],
      "name": "withdraw",
      "outputs": [],
      "stateMutability": "nonpayable",
      "type": "function"
    },
    {
      "inputs": [],
      "name": "cancelDeal",
      "outputs": [],
      "stateMutability": "nonpayable",
      "type": "function"
    },
    {
      "inputs": [
        {
          "internalType": "address payable",
          "name": "_freelancer",
          "type": "address"
        }
      ],
      "name": "setFreelancer",
      "outputs": [],
      "stateMutability": "nonpayable",
      "type": "function"
    }
  ],
  "bytecode": "0x608060405260405162000d7c38038062000d7c833981810160405281019062000029919062000104565b8042106200006e576040517f08c379a00000000000000000000000000000000000000000000000000000000081526004016200006590620001bd565b60405180910390fd5b346003819055508060008190555033600160006101000a81548173ffffffffffffffffffffffffffffffffffffffff021916908373ffffffffffffffffffffffffffffffffffffffff16021790555050620001df565b600080fd5b6000819050919050565b620000de81620000c9565b8114620000ea57600080fd5b50565b600081519050620000fe81620000d3565b92915050565b6000602082840312156200011d576200011c620000c4565b5b60006200012d84828501620000ed565b91505092915050565b600082825260208201905092915050565b7f556e6c6f636b2074696d652073686f756c6420626520696e207468652066757460008201527f7572650000000000000000000000000000000000000000000000000000000000602082015250565b6000620001a560238362000136565b9150620001b28262000147565b604082019050919050565b60006020820190508181036000830152620001d88162000196565b9050919050565b610b8d80620001ef6000396000f3fe608060405234801561001057600080fd5b506004361061007d5760003560e01c80633ccfd60b1161005b5780633ccfd60b146100c65780638da5cb5b146100d0578063a37dda2c146100ee578063aa8c217c1461010c5761007d565b80631265e84814610082578063251c1aa31461009e57806329e31644146100bc575b600080fd5b61009c60048036038101906100979190610732565b61012a565b005b6100a66102b3565b6040516100b39190610778565b60405180910390f35b6100c46102b9565b005b6100ce610430565b005b6100d861067d565b6040516100e591906107a2565b60405180910390f35b6100f66106a3565b60405161010391906107a2565b60405180910390f35b6101146106c9565b6040516101219190610778565b60405180910390f35b60005442111561016f576040517f08c379a00000000000000000000000000000000000000000000000000000000081526004016101669061081a565b60405180910390fd5b600073ffffffffffffffffffffffffffffffffffffffff16600260009054906101000a900473ffffffffffffffffffffffffffffffffffffffff1673ffffffffffffffffffffffffffffffffffffffff1614610200576040517f08c379a00000000000000000000000000000000000000000000000000000000081526004016101f790610886565b60405180910390fd5b600073ffffffffffffffffffffffffffffffffffffffff168173ffffffffffffffffffffffffffffffffffffffff160361026f576040517f08c379a0000000000000000000000000000000000000000000000000000000008152600401610266906108f2565b60405180910390fd5b80600260006101000a81548173ffffffffffffffffffffffffffffffffffffffff021916908373ffffffffffffffffffffffffffffffffffffffff16021790555050565b60005481565b600160009054906101000a900473ffffffffffffffffffffffffffffffffffffffff1673ffffffffffffffffffffffffffffffffffffffff163373ffffffffffffffffffffffffffffffffffffffff1614610349576040517f08c379a00000000000000000000000000000000000000000000000000000000081526004016103409061095e565b60405180910390fd5b6000471161038c576040517f08c379a0000000000000000000000000000000000000000000000000000000008152600401610383906109ca565b60405180910390fd5b7fbf2ed60bd5b5965d685680c01195c9514e4382e28e3a5a2d2d5244bf59411b9347426040516103bd9291906109ea565b60405180910390a1600160009054906101000a900473ffffffffffffffffffffffffffffffffffffffff1673ffffffffffffffffffffffffffffffffffffffff166108fc479081150290604051600060405180830381858888f1935050505015801561042d573d6000803e3d6000fd5b50565b600073ffffffffffffffffffffffffffffffffffffffff16600260009054906101000a900473ffffffffffffffffffffffffffffffffffffffff1673ffffffffffffffffffffffffffffffffffffffff16036104c1576040517f08c379a00000000000000000000000000000000000000000000000000000000081526004016104b890610a5f565b60405180910390fd5b600054421015610506576040517f08c379a00000000000000000000000000000000000000000000000000000000081526004016104fd90610acb565b60405180910390fd5b600260009054906101000a900473ffffffffffffffffffffffffffffffffffffffff1673ffffffffffffffffffffffffffffffffffffffff163373ffffffffffffffffffffffffffffffffffffffff1614610596576040517f08c379a000000000000000000000000000000000000000000000000000000000815260040161058d90610b37565b60405180910390fd5b600047116105d9576040517f08c379a00000000000000000000000000000000000000000000000000000000081526004016105d0906109ca565b60405180910390fd5b7fbf2ed60bd5b5965d685680c01195c9514e4382e28e3a5a2d2d5244bf59411b93474260405161060a9291906109ea565b60405180910390a1600260009054906101000a900473ffffffffffffffffffffffffffffffffffffffff1673ffffffffffffffffffffffffffffffffffffffff166108fc479081150290604051600060405180830381858888f1935050505015801561067a573d6000803e3d6000fd5b50565b600160009054906101000a900473ffffffffffffffffffffffffffffffffffffffff1681565b600260009054906101000a900473ffffffffffffffffffffffffffffffffffffffff1681565b60035481565b600080fd5b600073ffffffffffffffffffffffffffffffffffffffff82169050919050565b60006106ff826106d4565b9050919050565b61070f816106f4565b811461071a57600080fd5b50565b60008135905061072c81610706565b92915050565b600060208284031215610748576107476106cf565b5b60006107568482850161071d565b91505092915050565b6000819050919050565b6107728161075f565b82525050565b600060208201905061078d6000830184610769565b92915050565b61079c816106f4565b82525050565b60006020820190506107b76000830184610793565b92915050565b600082825260208201905092915050565b7f5468697320676967206973206578706972656400000000000000000000000000600082015250565b60006108046013836107bd565b915061080f826107ce565b602082019050919050565b60006020820190508181036000830152610833816107f7565b9050919050565b7f467265656c616e63657220697320616c726561647920646566696e65642e0000600082015250565b6000610870601e836107bd565b915061087b8261083a565b602082019050919050565b6000602082019050818103600083015261089f81610863565b9050919050565b7f496e76616c696420667265656c616e6365722061646472657373000000000000600082015250565b60006108dc601a836107bd565b91506108e7826108a6565b602082019050919050565b6000602082019050818103600083015261090b816108cf565b9050919050565b7f596f75206172656e277420746865206f776e6572000000000000000000000000600082015250565b60006109486014836107bd565b915061095382610912565b602082019050919050565b600060208201905081810360008301526109778161093b565b9050919050565b7f4e6f2066756e647320746f207769746864726177000000000000000000000000600082015250565b60006109b46014836107bd565b91506109bf8261097e565b602082019050919050565b600060208201905081810360008301526109e3816109a7565b9050919050565b60006040820190506109ff6000830185610769565b610a0c6020830184610769565b9392505050565b7f467265656c616e6365722069736e277420646566696e65642e00000000000000600082015250565b6000610a496019836107bd565b9150610a5482610a13565b602082019050919050565b60006020820190508181036000830152610a7881610a3c565b9050919050565b7f596f752063616e27742077697468647261772079657400000000000000000000600082015250565b6000610ab56016836107bd565b9150610ac082610a7f565b602082019050919050565b60006020820190508181036000830152610ae481610aa8565b9050919050565b7f596f75206172656e27742074686520667265656c616e63657200000000000000600082015250565b6000610b216019836107bd565b9150610b2c82610aeb565b602082019050919050565b60006020820190508181036000830152610b5081610b14565b905091905056fea2646970667358221220381cdaa2d2537cf7a92ba195be87184dde449df0c5a85e171582aa915c46f90464736f6c63430008130033",
  "immutableReferences": {},
  "source": "// SPDX-License-Identifier: UNLICENSED\r\npragma solidity ^0.8.19;\r\n\r\n// Uncomment this line to use console.log\r\n// import \"hardhat/console.sol\";\r\n\r\ncontract Freelancing {\r\n    uint public unlockTime;\r\n    address payable public owner;\r\n    address payable public freelancer;\r\n    uint public amount;\r\n\r\n    event Withdrawal(uint _amount, uint when);\r\n\r\n    constructor(uint _unlockTime) payable {\r\n        require(\r\n            block.timestamp < _unlockTime,\r\n            \"Unlock time should be in the future\"\r\n        );\r\n\r\n        amount = msg.value;\r\n        unlockTime = _unlockTime;\r\n        owner = payable(msg.sender);\r\n    }\r\n\r\n    function withdraw() public {\r\n        // Uncomment this line, and the import of \"hardhat/console.sol\", to print a log in your terminal\r\n        // console.log(\"Unlock time is %o and block timestamp is %o\", unlockTime, block.timestamp);\r\n        require(freelancer != address(0), \"Freelancer isn't defined.\");\r\n        require(block.timestamp >= unlockTime, \"You can't withdraw yet\");\r\n        require(msg.sender == freelancer, \"You aren't the freelancer\");\r\n        require(address(this).balance > 0, \"No funds to withdraw\");\r\n\r\n        emit Withdrawal(address(this).balance, block.timestamp);\r\n        freelancer.transfer(address(this).balance);\r\n    }\r\n\r\n    function cancelDeal() public {\r\n        require(msg.sender == owner, \"You aren't the owner\");\r\n        require(address(this).balance > 0, \"No funds to withdraw\");\r\n\r\n        emit Withdrawal(address(this).balance, block.timestamp);\r\n        owner.transfer(address(this).balance);\r\n    }\r\n\r\n    function setFreelancer(address payable _freelancer) public {\r\n        require(block.timestamp <= unlockTime, \"This gig is expired\");\r\n        require(freelancer == address(0), \"Freelancer is already defined.\");\r\n        require(_freelancer != address(0), \"Invalid freelancer address\");\r\n\r\n        freelancer = _freelancer;\r\n    }\r\n}\r\n",
  "sourcePath": "C:\\Users\\Pichau\\Documents\\Vs Projects\\nuxt-gighub\\contracts\\Freelancing.sol",
  "compiler": {
    "name": "solc",
    "version": "0.8.19+commit.7dd6d404.Emscripten.clang"
  },
  "schemaVersion": "3.4.16",
  "updatedAt": "2024-05-08T11:04:15.513Z",
  "networkType": "ethereum",
  "devdoc": {
    "kind": "dev",
    "methods": {},
    "version": 1
  },
  "userdoc": {
    "kind": "user",
    "methods": {},
    "version": 1
  }
}